:020000040800F2
:100000000028002039160008C9150008CF1500087F
:10001000D5150008DB150008E115000800000000F8
:10002000000000000000000000000000E7150008CC
:10003000F315000800000000FF1500080B1600086B
:100040008116000881160008811600088116000834
:100050008116000881160008811600088116000824
:100060008116000881160008811600088116000814
:100070008116000881160008811600088116000804
:1000800081160008811600088116000881160008F4
:1000900081160008811600088116000881160008E4
:1000A00081160008811600088116000881160008D4
:1000B00019160008811600080000000081160008CB
:1000C00081160008000000000000000081160008F2
:1000D00000000000811600088116000800000000E2
:1000E0008116000881160008811600080000000033
:1000F0000000000000000000000000000000000000
:0C01000000000000000000005FF808F1A3
:10010C0010B5054C237833B9044B13B10448AFF345
:10011C0000800123237010BD280000200000000087
:10012C006833000808B5034B1BB103490348AFF310
:10013C00008008BD000000002C000020683300087F
:10014C0080B483B000AF7860094A7B6852F82330E2
:10015C00012B06D1064A7B68002142F823100123AB
:10016C0000E0002318460C37BD4680BC704700BF2A
:10017C009400002080B483B000AF7860064A7B689E
:10018C0052F82330012B0CBF01230023DBB218469D
:10019C000C37BD4680BC70478400002080B582B00F
:1001AC0000AF00237B608CE04A4A7B6852F8232026
:1001BC0049497B6841F823207B68002B09D1022137
:1001CC00464801F045FD03461946424A7B6842F811
:1001DC0023107B68012B09D10421404801F038FD24
:1001EC00034619463B4A7B6842F823107B68022B76
:1001FC0009D10821394801F02BFD03461946354A2F
:10020C007B6842F823107B68032B09D110213348FB
:10021C0001F01EFD034619462E4A7B6842F8231056
:10022C002C4A7B6852F823202B497B6851F82330E9
:10023C009A4243D12A4A7B6852F8232025497B688D
:10024C0051F823309A421ED0224A7B6852F8232060
:10025C0023497B6841F82320214A7B6852F82330DC
:10026C00002B05D11F4A7B68012142F8231025E0A1
:10027C001D4A7B68002142F823101C4A7B68002130
:10028C0042F823101AE0164A7B6852F82330002BF0
:10029C0014D1164A7B6852F82330952B09DC134A8B
:1002AC007B6852F823305A1C10497B6841F8232094
:1002BC0004E00D4A7B68012142F823107B6801336E
:1002CC007B607B68032B7FF76FAF00BF00BF0837E5
:1002DC00BD4680BD540000204400002000080140B1
:1002EC006400002094000020840000207400002092
:1002FC0080B500AFBA4B1B68042B00F28C8101A2B5
:10030C0052F823F0250300084D030008EF03000802
:10031C009904000841050008B24B1B684FF47A722F
:10032C0002FB03F3184601F033F80A2001F04CF8F5
:10033C00AB4B01221A60AC4B1B68AC4A13606AE1F0
:10034C0000F0B8FC00F010FDA94B1B68012B0ED17E
:10035C00A84B1B684FF47A7202FB03F3184601F0AA
:10036C0017F80A2001F030F89D4B02221A60A24BBC
:10037C001B68012B21D14FF47A7001F025F89B4BAF
:10038C001B689E4A82FB03129210DB17D31A184685
:10039C0000F068FD954B1A68531E94490B60974BFF
:1003AC0083FB02139910D317C91A0B469B000B44FD
:1003BC005B00D11A084600F0D3FD0120FFF7C0FE08
:1003CC000346002B00F00A818D4B1B684FF47A72A8
:1003DC0002FB03F3184600F0DBFF814B14221A607A
:1003EC00FCE000F067FC00F0ADFC814B1B68012BBE
:1003FC0012D1844B1B684FF47A7202FB03F318463C
:10040C0000F0C6FF0A2000F0DFFF7E4B1B68774A26
:10041C001360734B03221A60774B1B68012B21D19D
:10042C004FF47A7000F0D0FF704B1B68734A82FB5C
:10043C0003129210DB17D31A184600F013FD6B4B06
:10044C001A68531E69490B606C4B83FB021399109D
:10045C00D317C91A0B469B000B445B00D11A0846F4
:10046C0000F07EFD0120FFF76BFE0346002B00F031
:10047C00CD80634B1B684FF47A7202FB03F3184672
:10048C0000F086FF564B15221A60BFE000F048FCC6
:10049C0000F034FC564B1B68012B12D15A4B1B68D5
:1004AC004FF47A7202FB03F3184600F071FF0A2036
:1004BC0000F08AFF544B1B684C4A1360484B0422D3
:1004CC001A604D4B1B68012B21D14FF47A7000F050
:1004DC007BFF464B1B68494A82FB03129210DB17C9
:1004EC00D31A184600F0BEFC404B1A68531E3F4905
:1004FC000B60424B83FB02139910D317C91A0B469E
:10050C009B000B445B00D11A084600F029FD01202A
:10051C00FFF716FE0346002B7AD0394B1B684FF4BD
:10052C007A7202FB03F3184600F032FF2C4B1622B2
:10053C001A606DE000F0F4FB00F0CEFB2C4B1B6856
:10054C00012B12D1274B1B684FF47A7202FB03F379
:10055C00184600F01DFF0A2000F036FF224B1B68E6
:10056C00224A13601E4B01221A60234B1B68012B7D
:10057C0021D14FF47A7000F027FF1C4B1B681F4AE7
:10058C0082FB03129210DB17D31A184600F06AFC98
:10059C00164B1A68531E15490B60184B83FB02133C
:1005AC009910D317C91A0B469B000B445B00D11A48
:1005BC00084600F0D5FC0120FFF7C2FD0346002BD6
:1005CC0028D00F4B1B684FF47A7202FB03F31846CA
:1005DC0000F0DEFE024B17221A601BE000BF1AE08F
:1005EC00A80000201000002000000020AC0000201B
:1005FC005001002014000020580100206766666638
:10060C0018000020040000200800002000BF02E0B9
:10061C0000BF00E000BF00BF80BD00BF80B500AFD1
:10062C00684B1B68143B032B00F2C18001A252F8EB
:10063C0023F000BF51060008AF06000807070008AA
:10064C006307000800F036FB00F08EFB5E4B1B6866
:10065C00012B06D15B4B01221A6040F6B83000F03A
:10066C0097FE0220FFF76CFD0346002B0BD0554B79
:10067C0015221A60554B1B684FF47A7202FB03F378
:10068C00184600F085FE0120FFF75AFD0346002BAB
:10069C0000F08F804B4B28221A600A2000F078FE65
:1006AC0087E000F04FFB484B1B68012B06D1454BF4
:1006BC0002221A604FF4FA6000F06AFE0220FFF783
:1006CC003FFD0346002B0BD03E4B16221A603F4BCE
:1006DC001B684FF47A7202FB03F3184600F058FEC5
:1006EC000120FFF72DFD0346002B64D0354B28224B
:1006FC001A600A2000F04CFE5DE000F0FFFA00F0FA
:10070C000FFB314B1B68012B06D12E4B03221A60B9
:10071C0040F6B83000F03CFE0220FFF711FD034616
:10072C00002B0BD0274B17221A60284B1B684FF459
:10073C007A7202FB03F3184600F02AFE0120FFF741
:10074C00FFFC0346002B38D01E4B28221A600A20CF
:10075C0000F01EFE31E000F0BFFA1B4B1B68012BB2
:10076C0006D1184B04221A604FF4FA6000F010FE08
:10077C000220FFF7E5FC0346002B0BD0114B142293
:10078C001A60124B1B684FF47A7202FB03F3184683
:10079C0000F0FEFD0120FFF7D3FC0346002B0ED02A
:1007AC00084B28221A600A2000F0F2FD07E000BF77
:1007BC0006E000BF04E000BF02E000BF00E000BFA5
:1007CC0000BF80BDA80000205001002018000020B0
:1007DC0080B500AF1D4B1B68322B02D0332B18D0C9
:1007EC0032E000F02DFB0020FFF7AAFC0346002BA3
:1007FC0027D0174B1A68174B1B6813444FF4FA6237
:10080C0002FB03F3184600F0DFFD104B33221A6095
:10081C0017E0114B1B68032B02D100F0B7FA08E06C
:10082C000D4B1B68042B02D100F0C2FA01E000F062
:10083C00D1FA0A4B1B68012B05D1074B32221A60E7
:10084C0001E000BF00E000BF00BF80BDA40000209D
:10085C00000000200C000020A800002058010020FF
:10086C0080B500AF7D4B1B68283B032B00F2018247
:10087C0001A252F823F000BF950800087F09000878
:10088C00850A00087D0B000800F014FA00F0C6FA87
:10089C000220FFF755FC0346002B1FD0704B1B6842
:1008AC0001336F4A13606E4B1B686E4A82FB031256
:1008BC009210DB17D31A184600F0D4FA684B1A685A
:1008CC00684B83FB02139910D317C91A0B469B0074
:1008DC000B445B00D11A084600F042FB0220FFF7E4
:1008EC0049FC0346002B26D05F4B1B68012B22D101
:1008FC005B4B1B68013B5A4A1360594B1B68594AA6
:10090C0082FB03129210DB17D31A184600F0AAFAD6
:10091C00534B1A68534B83FB02139910D317C91A04
:10092C000B469B000B445B00D11A084600F018FBE9
:10093C00C82000F02DFD0320FFF702FC0346002B1E
:10094C0006D04A4B1A68464B1B681344474A13603F
:10095C000120FFF7F5FB0346002B00F08C81404B88
:10096C0000221A603D4B29221A600A2000F010FD6B
:10097C0081E100F0C3F900F051FA0220FFF7E0FB2F
:10098C000346002B1FD03A4B1B680133384A1360C7
:10099C00374B1B68334A82FB03129210DB17D31AB6
:1009AC00184600F05FFA324B1A682E4B83FB021389
:1009BC009910D317C91A0B469B000B445B00D11A34
:1009CC00084600F0CDFA0220FFF7D4FB0346002BBB
:1009DC0026D0254B1B68012B22D1254B1B68013BD4
:1009EC00234A1360224B1B681E4A82FB031292108F
:1009FC00DB17D31A184600F035FA1D4B1A68194B41
:100A0C0083FB02139910D317C91A0B469B000B4496
:100A1C005B00D11A084600F0A3FAC82000F0B8FC1D
:100A2C000320FFF78DFB0346002B06D0114B1A68F1
:100A3C000F4B1B6813440F4A13600120FFF780FB18
:100A4C000346002B00F01981094B00221A60034B5E
:100A5C002A221A600A2000F09BFC0EE1A80000205C
:100A6C00B000002067666666500100200000002080
:100A7C00B80000200400002000F02EF900F0CEF9A0
:100A8C000220FFF75DFB0346002B1FD07E4B1B683B
:100A9C0001337D4A13607C4B1B687C4A82FB03123A
:100AAC009210DB17D31A184600F0DCF9764B1A6853
:100ABC00764B83FB02139910D317C91A0B469B0074
:100ACC000B445B00D11A084600F04AFA0220FFF7EB
:100ADC0051FB0346002B26D06D4B1B68012B22D1FA
:100AEC00694B1B68013B684A1360674B1B68674A7C
:100AFC0082FB03129210DB17D31A184600F0B2F9DE
:100B0C00614B1A68614B83FB02139910D317C91AF6
:100B1C000B469B000B445B00D11A084600F020FAF0
:100B2C00C82000F035FC0320FFF70AFB0346002B1E
:100B3C0006D0584B1A68544B1B681344554A136023
:100B4C000120FFF7FDFA0346002B00F098804E4B76
:100B5C0000221A604F4B1A684F4B1B6813444F4AC4
:100B6C0013604F4B2B221A600A2000F011FC86E018
:100B7C0000F0FAF800F040F90220FFF7E1FA034622
:100B8C00002B1FD0474B1B680133464A1360454B63
:100B9C001B683E4A82FB03129210DB17D31A1846CD
:100BAC0000F060F93F4B1A68384B83FB0213991025
:100BBC00D317C91A0B469B000B445B00D11A08468D
:100BCC0000F0CEF90220FFF7D5FA0346002B26D011
:100BDC002F4B1B68012B22D1324B1B68013B314A36
:100BEC001360304B1B68294A82FB03129210DB17EF
:100BFC00D31A184600F036F92A4B1A68234B83FB9C
:100C0C0002139910D317C91A0B469B000B445B00B7
:100C1C00D11A084600F0A4F9C82000F0B9FB032053
:100C2C00FFF78EFA0346002B06D01F4B1A681D4B9C
:100C3C001B6813441C4A13600120FFF781FA03461A
:100C4C00002B1ED0174B00221A60184B1A68164B3B
:100C5C001B68D31A164A1360114B01221A60124BEF
:100C6C001B684FF47A7202FB03F3184600F090FBFA
:100C7C0007E000BF06E000BF04E000BF02E000BFD9
:100C8C0000E000BF00BF80BDB40000206766666650
:100C9C005001002008000020040000200C0000205F
:100CAC00A8000020B8000020100000200000002048
:100CBC001400002080B500AF01228021054800F00F
:100CCC00DEFF00224FF48071024800F0D8FF00BF15
:100CDC0080BD00BF0008014080B500AF012280211B
:100CEC00054800F0CCFF01224FF48071024800F05F
:100CFC00C6FF00BF80BD00BF0008014080B500AF3B
:100D0C0000228021054800F0BAFF01224FF48071C7
:100D1C00024800F0B4FF00BF80BD00BF00080140D6
:100D2C0080B500AF01224FF40071054800F0A7FF19
:100D3C0000224FF48061024800F0A1FF00BF80BD8B
:100D4C000008014080B500AF01224FF40071054846
:100D5C0000F095FF01224FF48061024800F08FFFF4
:100D6C0000BF80BD0008014080B500AF00224FF4E9
:100D7C000071054800F083FF01224FF480610248A6
:100D8C0000F07DFF00BF80BD0008014080B500AFC2
:100D9C0001224FF40061054800F071FF00224FF46E
:100DAC008051024800F06BFF00BF80BD000801407D
:100DBC0080B500AF01224FF40061054800F05FFFE1
:100DCC0001224FF48051024800F059FF00BF80BD52
:100DDC000008014080B500AF00224FF400610548C7
:100DEC0000F04DFF01224FF48051024800F047FF04
:100DFC0000BF80BD0008014080B500AF00228021FB
:100E0C00054800F03CFF00224FF48071024800F0CE
:100E1C0036FF00BF80BD00BF0008014080B500AFA9
:100E2C0000224FF40071054800F029FF00224FF416
:100E3C008061024800F023FF00BF80BD0008014024
:100E4C0080B500AF00224FF40061054800F017FF99
:100E5C0000224FF48051024800F011FF00BF80BD0A
:100E6C000008014080B483B000AF78607B68092B28
:100E7C006ED801A252F823F0AD0E0008BF0E000888
:100E8C00D10E0008E30E0008F50E0008070F00084D
:100E9C00190F00082B0F00083D0F00084B0F00081E
:100EAC002E4BDB6803F47F432C4A43F04003D360A2
:100EBC004FE02A4BDB6803F47F43284A43F0790365
:100ECC00D36046E0254BDB6803F47F43234A43F0B1
:100EDC002403D3603DE0214BDB6803F47F431F4ABE
:100EEC0043F03003D36034E01C4BDB6803F47F43E6
:100EFC001A4A43F01903D3602BE0184BDB6803F458
:100F0C007F43164A43F01203D36022E0134BDB6895
:100F1C0003F47F43114A43F00203D36019E00F4BF3
:100F2C00DB6803F47F430D4A43F07803D36010E091
:100F3C000A4BDB68094A03F47F43D36009E0074B93
:100F4C00DB6803F47F43054A43F01003D36000E0F1
:100F5C0000BF00BF0C37BD4680BC7047000C014081
:100F6C0080B483B000AF78607B68092B64D801A291
:100F7C0052F823F0A90F0008B90F0008C90F000898
:100F8C00D90F0008E90F0008F90F00080910000834
:100F9C00191000082910000835100008294BDB68CF
:100FAC00DBB2284A43F48043D36046E0254BDB6830
:100FBC00DBB2244A43F4F243D3603EE0214BDB68BE
:100FCC00DBB2204A43F41053D36036E01D4BDB6890
:100FDC00DBB21C4A43F44053D3602EE0194BDB6860
:100FEC00DBB2184A43F4C853D36026E0154BDB68D8
:100FFC00DBB2144A43F49053D3601EE0114BDB6810
:10100C00DBB2104A43F40073D36016E00D4BDB687F
:10101C00DBB20C4A43F4F043D3600EE0094BDB68BF
:10102C00084ADBB2D36008E0064BDB68DBB2054A4A
:10103C0043F48053D36000E000BF00BF0C37BD46C3
:10104C0080BC7047000C014080B500AF00F014FB71
:10105C0000F028F800F028F900F064F800F0AEF881
:10106C000C4801F05DFA00210B4801F0FDFA0B4B26
:10107C0000221A600A4B32221A60FFF739F9FFF787
:10108C00CDFAFFF7A5FBFFF7EBFB034B1B686422C4
:10109C005A63F2E7BC00002004010020A8000020E5
:1010AC00A400002080B590B000AF07F118032822EF
:1010BC000021184602F04AF93B1D00221A605A60C2
:1010CC009A60DA601A610223BB610123BB621023B0
:1010DC00FB6202237B630023BB630023FB6307F1EA
:1010EC001803184600F0E4FD0346002B01D000F075
:1010FC0049F90F237B600223BB600023FB600023B4
:10110C003B6100237B613B1D0021184601F052F826
:10111C000346002B01D000F035F900BF4037BD4627
:10112C0080BD000080B586B000AF07F10803002237
:10113C001A605A609A60DA603B4600221A605A6064
:10114C001D4B4FF080421A601B4B41F63F725A60A8
:10115C00194B00229A60184B0A22DA60164B0022B7
:10116C001A61154B00229A61134801F089F9034664
:10117C00002B01D000F006F94FF48053BB6007F14F
:10118C00080319460C4801F0D1FC0346002B01D092
:10119C0000F0F8F800233B6000237B603B461946C7
:1011AC00054802F045F80346002B01D000F0EAF8A0
:1011BC0000BF1837BD4680BDBC00002080B58EB086
:1011CC0000AF07F1280300221A605A609A60DA60B7
:1011DC0007F1200300221A605A603B1D00221A609E
:1011EC005A609A60DA601A615A619A612C4B2D4AE6
:1011FC001A602B4B4F225A60294B00229A60284BC5
:10120C006422DA60264B00221A61254B00229A6177
:10121C00234801F035F90346002B01D000F0B2F859
:10122C004FF48053BB6207F1280319461C4801F0A8
:10123C007DFC0346002B01D000F0A4F8184801F007
:10124C00BBF90346002B01D000F09CF800233B6255
:10125C0000237B6207F120031946114801F0E8FFD7
:10126C000346002B01D000F08DF860237B60002337
:10127C00BB600023FB6000237B613B1D00221946F1
:10128C00074801F095FB0346002B01D000F07AF8DB
:10129C00034800F061F900BF3837BD4680BD00BF80
:1012AC00040100200004004080B586B000AF07F1B7
:1012BC00080300221A605A609A60DA60284B9B6916
:1012CC00274A43F004039361254B9B6903F0040305
:1012DC007B607B68224B9B69214A43F00803936136
:1012EC001F4B9B6903F008033B603B6800224FF4E3
:1012FC00FC511C4800F0C3FC002247F67F711A48D1
:10130C0000F0BDFC1E23BB600023FB6001233B618E
:10131C0007F108031946134800F01EFB4FF4FC5369
:10132C00BB600123FB6000233B6102237B6107F15F
:10133C00080319460B4800F00FFB47F67F73BB60A0
:10134C000123FB6000233B6102237B6107F108034F
:10135C001946054800F000FB00BF1837BD4680BD9C
:10136C000010024000080140000C014080B582B022
:10137C0000AF786000F044F8FEF710FF00BF0837AC
:10138C00BD4680BD80B400AF72B600BFFEE7000062
:10139C0080B483B000AF7860084B00221A607B6881
:1013AC00074A82FB03129210DB17D31A054A13600B
:1013BC0000BF0C37BD4680BC704700BF50010020F9
:1013CC00676666664C01002080B483B000AF78601D
:1013DC00084B00221A607B68074A82FB03129210AA
:1013EC00DB17D31A054A136000BF0C37BD4680BC0F
:1013FC00704700BF580100206766666654010020E4
:10140C0080B400AF194B1B68002B0BDD174B1B680E
:10141C00013B164A1360154B1B68002B02D1144B71
:10142C0001221A60134B1B68002B0BDD114B1B6840
:10143C00013B104A13600F4B1B68002B02D10E4B63
:10144C0001221A600D4B1B68002B0BDD0B4B1B682C
:10145C00013B0A4A1360094B1B68002B02D1084B55
:10146C0001221A6000BFBD4680BC70474C010020B1
:10147C005001002054010020580100205C01002084
:10148C006001002080B485B000AF154B9B69144AF5
:10149C0043F001039361124B9B6903F00103BB60A2
:1014AC00BB680F4BDB690E4A43F08053D3610C4B86
:1014BC00DB6903F080537B607B680A4B5B68FB60E5
:1014CC00FB6823F0E063FB60FB6843F00073FB6098
:1014DC00044AFB68536000BF1437BD4680BC70479C
:1014EC00001002400000014080B584B000AF78606D
:1014FC007B681B68B3F1804F14D1154BDB69144A20
:10150C0043F00103D361124BDB6903F00103FB6071
:10151C00FB68002200211C2000F0E7F91C2000F0E1
:10152C0000FA10E07B681B680A4A93420BD1084B07
:10153C00DB69074A43F00203D361054BDB6903F017
:10154C000203BB60BB6800BF1037BD4680BD00BF47
:10155C00001002400004004080B588B000AF7860F5
:10156C0007F1100300221A605A609A60DA607B68F7
:10157C001B680F4A934217D10E4B9B690D4A43F0DF
:10158C00040393610B4B9B6903F00403FB60FB6842
:10159C0040233B6102237B610223FB6107F11003B3
:1015AC001946054800F0D8F900BF2037BD4680BD6C
:1015BC0000040040001002400008014080B400AF5D
:1015CC00FEE780B400AFFEE780B400AFFEE780B466
:1015DC0000AFFEE780B400AFFEE780B400AF00BF01
:1015EC00BD4680BC704780B400AF00BFBD4680BC18
:1015FC00704780B400AF00BFBD4680BC704780B55B
:10160C0000AF00F07FF800BF80BD000080B500AFD8
:10161C00024801F0C5F800BF80BD00BFBC0000202F
:10162C0080B400AF00BFBD4680BC70470C480D496C
:10163C000D4A002302E0D458C4500433C4188C4221
:10164C00F9D30A4A0A4C002301E013600432A24287
:10165C00FBD3FFF7E5FF01F055FEFFF7F5FC7047F4
:10166C000000002028000020A833000828000020DB
:10167C0068010020FEE7000080B500AF084B1B6836
:10168C00074A43F010031360032000F023F90F20E6
:10169C0000F008F8FFF7F6FE0023184680BD00BFE7
:1016AC000020024080B582B000AF7860124B1A68FF
:1016BC00124B1B7819464FF47A73B3FBF1F3B2FB60
:1016CC00F3F3184600F03BF90346002B01D001233D
:1016DC000EE07B680F2B0AD8002279684FF0FF30A0
:1016EC0000F003F9064A7B681360002300E0012335
:1016FC0018460837BD4680BD1C0000202400002081
:10170C002000002080B400AF054B1B781A46054B17
:10171C001B681344034A136000BFBD4680BC70476E
:10172C00240000206401002080B400AF024B1B6831
:10173C001846BD4680BC70476401002080B485B05B
:10174C0000AF78607B6803F00703FB600C4BDB6831
:10175C00BB60BA684FF6FF031340BB60FB681A020C
:10176C00BB68134343F0BF6343F40033BB60044ACC
:10177C00BB68D36000BF1437BD4680BC704700BF48
:10178C0000ED00E080B400AF044BDB681B0A03F0F3
:10179C0007031846BD4680BC704700BF00ED00E053
:1017AC0080B483B000AF0346FB7197F90730002B70
:1017BC000BDBFB7903F01F02064997F907305B0935
:1017CC00012000FA02F241F8232000BF0C37BD467D
:1017DC0080BC704700E100E080B483B000AF0346EA
:1017EC003960FB7197F90730002B0ADB3B68DAB2E2
:1017FC000C4997F907301201D2B20B4483F800233D
:10180C000AE03B68DAB20849FB7903F00F03043BAA
:10181C001201D2B20B441A7600BF0C37BD4680BC05
:10182C00704700BF00E100E000ED00E080B489B03B
:10183C0000AFF860B9607A60FB6803F00703FB61E6
:10184C00FB69C3F10703042B28BF0423BB61FB69AD
:10185C000433062B02D9FB69033B00E000237B61B8
:10186C004FF0FF32BB6902FA03F3DA43BB681A404C
:10187C007B699A404FF0FF317B6901FA03F3D9433E
:10188C007B680B40134318462437BD4680BC704719
:10189C0080B582B000AF78607B68013BB3F1807F8C
:1018AC0001D301230FE00A4A7B68013B53600F21EF
:1018BC004FF0FF30FFF790FF054B00229A60044B6E
:1018CC0007221A60002318460837BD4680BD00BFAA
:1018DC0010E000E080B582B000AF78607868FFF768
:1018EC002DFF00BF0837BD4680BD80B586B000AF68
:1018FC000346B9607A60FB7300237B61FFF742FFFC
:10190C0078617A68B9687869FFF790FF024697F9B1
:10191C000F3011461846FFF75FFF00BF1837BD4662
:10192C0080BD80B582B000AF0346FB7197F90730DC
:10193C001846FFF735FF00BF0837BD4680BD80B5A0
:10194C0082B000AF78607868FFF7A2FF03461846B4
:10195C000837BD4680BD000080B48BB000AF786006
:10196C00396000237B6200233B6261E101227B6AC8
:10197C0002FA03F3FB613B681B68FA691340BB6115
:10198C00BA69FB699A4240F050813B685B68974AA0
:10199C0093425ED0954A934275D8954A934258D05B
:1019AC00934A93426FD8934A934252D0914A9342AE
:1019BC0069D8914A93424CD08F4A934263D88F4A4C
:1019CC00934246D08D4A93425DD8122B2AD8122BC3
:1019DC0059D801A252F823F05F1A0008391A0008EE
:1019EC004B1A00088D1A0008931A0008931A000865
:1019FC00931A0008931A0008931A0008931A000807
:101A0C00931A0008931A0008931A0008931A0008F6
:101A1C00931A0008931A0008931A0008411A000838
:101A2C00551A0008764A934213D02CE03B68DB68C9
:101A3C003B6229E03B68DB6804333B6224E03B6893
:101A4C00DB6808333B621FE03B68DB680C333B62AE
:101A5C001AE03B689B68002B02D104233B6213E025
:101A6C003B689B68012B05D108233B627B68FA69B4
:101A7C001A6109E008233B627B68FA695A6103E04A
:101A8C0000233B6200E000BFBB69FF2B01D87B68E1
:101A9C0001E07B6804337B61BB69FF2B02D87B6A56
:101AAC009B0002E07B6A083B9B003B617B691A68E8
:101ABC000F213B6901FA03F3DB431A40396A3B6996
:101ACC0001FA03F31A437B691A603B685B6803F005
:101ADC008053002B00F0A9804A4B9B69494A43F084
:101AEC0001039361474B9B6903F00103BB60BB6827
:101AFC00454A7B6A9B08023352F82330FB607B6AB1
:101B0C0003F003039B000F2202FA03F3DB43FA6892
:101B1C001340FB607B683D4A93420DD07B683C4A86
:101B2C00934207D07B683B4A934201D1022304E0E5
:101B3C00032302E0012300E000237A6A02F003028F
:101B4C0092009340FA681343FB602F497B6A9B0811
:101B5C000233FA6841F823203B685B6803F4803356
:101B6C00002B06D02C4B1A682B49BB6913430B6016
:101B7C0006E0294B1A68BB69DB43274913400B600D
:101B8C003B685B6803F40033002B06D0224B5A6889
:101B9C002149BB6913434B6006E01F4B5A68BB6974
:101BAC00DB431D4913404B603B685B6803F48013B7
:101BBC00002B06D0184B9A681749BB6913438B60EE
:101BCC0006E0154B9A68BB69DB43134913408B60E5
:101BDC003B685B6803F40013002B1FD00E4BDA68D4
:101BEC000D49BB691343CB601FE000BF00003210EE
:101BFC000000311000002210000021100000121013
:101C0C0000001110001002400000014000080140CB
:101C1C00000C014000100140000401400B4BDA683D
:101C2C00BB69DB4309491340CB607B6A01337B62A0
:101C3C003B681A687B6A22FA03F3002B7FF496AE9A
:101C4C0000BF00BF2C37BD4680BC7047000401406C
:101C5C0080B485B000AF78600B467B807B689A6857
:101C6C007B881340002B02D00123FB7301E000237F
:101C7C00FB73FB7B18461437BD4680BC704780B4A1
:101C8C0083B000AF78600B467B8013467B707B780B
:101C9C00002B03D07A887B681A6103E07B881A04D6
:101CAC007B681A6100BF0C37BD4680BC70470000D2
:101CBC0080B586B000AF78607B68002B01D1012322
:101CCC0072E27B681B6803F00103002B00F0878035
:101CDC00924B5B6803F00C03042B0CD08F4B5B68AE
:101CEC0003F00C03082B12D18C4B5B6803F480338C
:101CFC00B3F5803F0BD1894B1B6803F40033002BE9
:101D0C006CD07B685B68002B68D101234CE27B684C
:101D1C005B68B3F5803F06D1804B1B687F4A43F468
:101D2C00803313602EE07B685B68002B0CD17B4BFF
:101D3C001B687A4A23F480331360784B1B68774A0C
:101D4C0023F4802313601DE07B685B68B3F5A02F40
:101D5C000CD1724B1B68714A43F4802313606F4B98
:101D6C001B686E4A43F4803313600BE06B4B1B68AB
:101D7C006A4A23F480331360684B1B68674A23F468
:101D8C00802313607B685B68002B13D0FFF7CCFCBF
:101D9C00386108E0FFF7C8FC02463B69D31A642B94
:101DAC0001D9032300E25D4B1B6803F40033002BC5
:101DBC00F0D014E0FFF7B8FC386108E0FFF7B4FC92
:101DCC0002463B69D31A642B01D90323ECE1534B34
:101DDC001B6803F40033002BF0D100E000BF7B68DC
:101DEC001B6803F00203002B63D04C4B5B6803F0C1
:101DFC000C03002B0BD0494B5B6803F00C03082B36
:101E0C001CD1464B5B6803F48033002B16D1434B3B
:101E1C001B6803F00203002B05D07B681B69012BA8
:101E2C0001D00123C0E13D4B1B6823F0F8027B6815
:101E3C005B69DB00394913430B603AE07B681B6933
:101E4C00002B20D0364B01221A60FFF76DFC386155
:101E5C0008E0FFF769FC02463B69D31A022B01D953
:101E6C000323A1E12D4B1B6803F00203002BF0D0E0
:101E7C002A4B1B6823F0F8027B685B69DB0027495F
:101E8C0013430B6015E0264B00221A60FFF74CFC45
:101E9C00386108E0FFF748FC02463B69D31A022B75
:101EAC0001D9032380E11D4B1B6803F00203002BB7
:101EBC00F0D17B681B6803F00803002B3AD07B68D9
:101ECC009B69002B19D0174B01221A60FFF72CFCD1
:101EDC00386108E0FFF728FC02463B69D31A022B55
:101EEC0001D9032360E10D4B5B6A03F00203002B65
:101EFC00F0D0012000F0A6FA1CE00A4B00221A6078
:101F0C00FFF712FC38610FE0FFF70EFC02463B694D
:101F1C00D31A022B08D9032346E100BF001002405C
:101F2C000000424280044242924B5B6A03F002037F
:101F3C00002BE9D17B681B6803F00403002B00F035
:101F4C00A6800023FB758B4BDB6903F08053002BC1
:101F5C000DD1884BDB69874A43F08053D361854BA5
:101F6C00DB6903F08053BB60BB680123FB75824BBC
:101F7C001B6803F48073002B18D17F4B1B687E4ABF
:101F8C0043F480731360FFF7CFFB386108E0FFF771
:101F9C00CBFB02463B69D31A642B01D9032303E123
:101FAC00754B1B6803F48073002BF0D07B68DB68E7
:101FBC00012B06D16F4B1B6A6E4A43F0010313626F
:101FCC002DE07B68DB68002B0CD16A4B1B6A694ADD
:101FDC0023F001031362674B1B6A664A23F0040368
:101FEC0013621CE07B68DB68052B0CD1614B1B6A10
:101FFC00604A43F0040313625E4B1B6A5D4A43F074
:10200C00010313620BE05B4B1B6A5A4A23F001037A
:10201C001362584B1B6A574A23F0040313627B6804
:10202C00DB68002B15D0FFF77FFB38610AE0FFF768
:10203C007BFB02463B69D31A41F28832934201D9A9
:10204C000323B1E04B4B1B6A03F00203002BEED0D1
:10205C0014E0FFF769FB38610AE0FFF765FB024605
:10206C003B69D31A41F28832934201D903239BE096
:10207C00404B1B6A03F00203002BEED1FB7D012BBE
:10208C0005D13C4BDB693B4A23F08053D3617B6821
:10209C00DB69002B00F08780364B5B6803F00C0388
:1020AC00082B61D07B68DB69022B46D1334B0022B5
:1020BC001A60FFF739FB386108E0FFF735FB024681
:1020CC003B69D31A022B01D903236DE0294B1B6802
:1020DC0003F00073002BF0D17B681B6AB3F5803FD3
:1020EC0008D1244B5B6823F400327B689B68214940
:1020FC0013434B601F4B5B6823F474127B68196AA3
:10210C007B685B6A0B431B4913434B601B4B0122DF
:10211C001A60FFF709FB386108E0FFF705FB024680
:10212C003B69D31A022B01D903233DE0114B1B68E9
:10213C0003F00073002BF0D035E0104B00221A6036
:10214C00FFF7F2FA386108E0FFF7EEFA02463B6956
:10215C00D31A022B01D9032326E0064B1B6803F08C
:10216C000073002BF0D11EE07B68DB69012B07D1DB
:10217C00012319E000100240007000406000424250
:10218C000B4B5B68FB60FB6803F480327B681B6A5B
:10219C009A4206D1FB6803F470127B685B6A9A4220
:1021AC0001D0012300E0002318461837BD4680BD3E
:1021BC000010024080B584B000AF786039607B6855
:1021CC00002B01D10123D0E06A4B1B6803F00703FD
:1021DC003A689A4210D9674B1B6823F0070265498D
:1021EC003B6813430B60634B1B6803F007033A68AF
:1021FC009A4201D00123B8E07B681B6803F002030C
:10220C00002B20D07B681B6803F00403002B05D047
:10221C00594B5B68584A43F4E06353607B681B6816
:10222C0003F00803002B05D0534B5B68524A43F470
:10223C0060535360504B5B6823F0F0027B689B68E3
:10224C004D4913434B607B681B6803F00103002B63
:10225C0040D07B685B68012B07D1474B1B6803F4AC
:10226C000033002B15D101237FE07B685B68022BC8
:10227C0007D1414B1B6803F00073002B09D10123DC
:10228C0073E03D4B1B6803F00203002B01D10123CB
:10229C006BE0394B5B6823F003027B685B68364963
:1022AC0013434B60FFF740FAF8600AE0FFF73CFA83
:1022BC000246FB68D31A41F28832934201D90323B8
:1022CC0053E02D4B5B6803F00C027B685B689B0052
:1022DC009A42EBD1274B1B6803F007033A689A42EA
:1022EC0010D2244B1B6823F0070222493B6813438E
:1022FC000B60204B1B6803F007033A689A4201D02D
:10230C00012332E07B681B6803F00403002B08D028
:10231C00194B5B6823F4E0627B68DB681649134356
:10232C004B607B681B6803F00803002B09D0124B31
:10233C005B6823F460527B681B69DB000E49134316
:10234C004B6000F021F802460B4B5B681B0903F055
:10235C000F030A49CB5C22FA03F3094A1360094BB9
:10236C001B681846FFF79EF9002318461037BD4628
:10237C0080BD00BF002002400010024090330008D6
:10238C001C0000202000002090B48AB000AF294B24
:10239C003C1D0FCB84E80F0040F201233B8000234F
:1023AC00FB610023BB6100237B6200237B61002364
:1023BC003B62214B5B68FB61FB6903F00C03042B54
:1023CC0002D0082B03D02BE01C4B3B622BE0FB69AB
:1023DC009B0C03F00F0328333B4413F8243C7B6124
:1023EC00FB6903F48033002B12D0134B5B685B0C3E
:1023FC0003F0010328333B4413F8283CBB617B6991
:10240C000E4A03FB02F2BB69B2FBF3F37B6204E0FE
:10241C007B690B4A02FB03F37B627B6A3B6202E043
:10242C00064B3B6200BF3B6A18462837BD4690BC42
:10243C00704700BF803300080010024000127A0081
:10244C0000093D0080B485B000AF78600A4B1B6872
:10245C000A4AA2FB03235B0A7A6802FB03F3FB60C4
:10246C0000BFFB685A1EFA60002BF9D100BF00BFF9
:10247C001437BD4680BC70471C000020D34D621041
:10248C0080B582B000AF78607B68002B01D101234E
:10249C0041E07B6893F83D30DBB2002B06D17B68C2
:1024AC00002283F83C207868FFF71EF87B68022234
:1024BC0083F83D207B681A687B6804331946104604
:1024CC0000F01CFC7B68012283F846207B6801220B
:1024DC0083F83E207B68012283F83F207B68012231
:1024EC0083F840207B68012283F841207B6801221D
:1024FC0083F842207B68012283F843207B68012209
:10250C0083F844207B68012283F845207B680122F4
:10251C0083F83D20002318460837BD4680BD0000D7
:10252C0080B485B000AF78607B6893F83D30DBB247
:10253C00012B01D0012335E07B68022283F83D207A
:10254C007B681B68DA687B681B6842F00102DA6002
:10255C007B681B68164A934209D07B681B68B3F1F1
:10256C00804F04D07B681B68124A934211D17B6860
:10257C001B689B6803F00703FB60FB68062B10D0FD
:10258C007B681B681A687B681B6842F001021A6042
:10259C0007E07B681B681A687B681B6842F00102C5
:1025AC001A60002318461437BD4680BC704700BF24
:1025BC00002C01400004004080B582B000AF786070
:1025CC007B68002B01D1012341E07B6893F83D30FF
:1025DC00DBB2002B06D17B68002283F83C207868A4
:1025EC0000F039F87B68022283F83D207B681A687A
:1025FC007B6804331946104600F080FB7B6801228F
:10260C0083F846207B68012283F83E207B680122F8
:10261C0083F83F207B68012283F840207B680122ED
:10262C0083F841207B68012283F842207B680122D9
:10263C0083F843207B68012283F844207B680122C5
:10264C0083F845207B68012283F83D20002318463F
:10265C000837BD4680BD80B483B000AF786000BF42
:10266C000C37BD4680BC704780B584B000AF786035
:10267C0039603B68002B09D17B6893F83E30DBB2A4
:10268C00012B14BF01230023DBB222E03B68042B97
:10269C0009D17B6893F83F30DBB2012B14BF0123C7
:1026AC000023DBB215E03B68082B09D17B6893F85B
:1026BC004030DBB2012B14BF01230023DBB208E056
:1026CC007B6893F84130DBB2012B14BF012300234C
:1026DC00DBB2002B01D0012359E03B68002B04D165
:1026EC007B68022283F83E2013E03B68042B04D164
:1026FC007B68022283F83F200BE03B68082B04D157
:10270C007B68022283F8402003E07B68022283F876
:10271C0041207B681B6801223968184600F064FD73
:10272C007B681B681C4A934207D17B681B685A6CF8
:10273C007B681B6842F400425A647B681B68164A2B
:10274C00934209D07B681B68B3F1804F04D07B683F
:10275C001B68124A934211D17B681B689B6803F07B
:10276C000703FB60FB68062B10D07B681B681A689C
:10277C007B681B6842F001021A6007E07B681B68EB
:10278C001A687B681B6842F001021A600023184625
:10279C001037BD4680BD00BF002C01400004004036
:1027AC0080B582B000AF78607B681B681B6903F052
:1027BC000203022B22D17B681B68DB6803F0020347
:1027CC00022B1BD17B681B686FF002021A617B68BD
:1027DC0001221A777B681B689B6903F00303002BAB
:1027EC0003D0786800F06FFA05E0786800F062FAC0
:1027FC00786800F071FA7B6800221A777B681B6896
:10280C001B6903F00403042B22D17B681B68DB6873
:10281C0003F00403042B1BD17B681B686FF00402CC
:10282C001A617B6802221A777B681B689B6903F428
:10283C004073002B03D0786800F045FA05E0786807
:10284C0000F038FA786800F047FA7B6800221A77B3
:10285C007B681B681B6903F00803082B22D17B687B
:10286C001B68DB6803F00803082B1BD17B681B6813
:10287C006FF008021A617B6804221A777B681B6868
:10288C00DB6903F00303002B03D0786800F01BFA1C
:10289C0005E0786800F00EFA786800F01DFA7B68A5
:1028AC0000221A777B681B681B6903F01003102B3E
:1028BC0022D17B681B68DB6803F01003102B1BD143
:1028CC007B681B686FF010021A617B6808221A770C
:1028DC007B681B68DB6903F44073002B03D07868BA
:1028EC0000F0F1F905E0786800F0E4F9786800F0A0
:1028FC00F3F97B6800221A777B681B681B6903F06D
:10290C000103012B0ED17B681B68DB6803F001030C
:10291C00012B07D17B681B686FF001021A61786884
:10292C00FEF724FD7B681B681B6903F08003802B7A
:10293C000ED17B681B68DB6803F08003802B07D10A
:10294C007B681B686FF080021A61786800F0D1FC1C
:10295C007B681B681B6903F04003402B0ED17B681E
:10296C001B68DB6803F04003402B07D17B681B68B6
:10297C006FF040021A61786800F0B7F97B681B6849
:10298C001B6903F02003202B0ED17B681B68DB68CE
:10299C0003F02003202B07D17B681B686FF020020B
:1029AC001A61786800F09CFC00BF0837BD4680BDFA
:1029BC0080B584B000AFF860B9607A60FB6893F8BA
:1029CC003C30012B01D10223ACE0FB68012283F8DF
:1029DC003C207B680C2B00F29F8001A252F823F064
:1029EC00212A0008252B0008252B0008252B000880
:1029FC00612A0008252B0008252B0008252B000830
:102A0C00A32A0008252B0008252B0008252B0008DD
:102A1C00E32A0008FB681B68B968184600F0C6F981
:102A2C00FB681B689A69FB681B6842F008029A6194
:102A3C00FB681B689A69FB681B6822F004029A61A8
:102A4C00FB681B689969BB681A69FB681B680A43B9
:102A5C009A6162E0FB681B68B968184600F00CFAD2
:102A6C00FB681B689A69FB681B6842F400629A61F8
:102A7C00FB681B689A69FB681B6822F480629A6188
:102A8C00FB681B689969BB681B691A02FB681B68A9
:102A9C000A439A6141E0FB681B68B968184600F06C
:102AAC0055FAFB681B68DA69FB681B6842F0080280
:102ABC00DA61FB681B68DA69FB681B6822F00402A8
:102ACC00DA61FB681B68D969BB681A69FB681B680B
:102ADC000A43DA6121E0FB681B68B968184600F00C
:102AEC009FFAFB681B68DA69FB681B6842F400629A
:102AFC00DA61FB681B68DA69FB681B6822F4806288
:102B0C00DA61FB681B68D969BB681B691A02FB6830
:102B1C001B680A43DA6100E000BFFB68002283F8FF
:102B2C003C20002318461037BD4680BD80B584B0CC
:102B3C0000AF786039607B6893F83C30012B01D191
:102B4C000223B3E07B68012283F83C207B680222DD
:102B5C0083F83D207B681B689B68FB60FB6823F057
:102B6C007703FB60FB6823F47F43FB607B681B6887
:102B7C00FA689A603B681B68B3F5005F3ED0B3F50A
:102B8C00005F00F28780B3F5805F00F08580B3F5BD
:102B9C00805F7FD8702B1AD0702B7BD8602B50D0D5
:102BAC00602B77D8502B3CD0502B73D8402B58D05F
:102BBC00402B6FD8302B64D0302B6BD8202B60D0AF
:102BCC00202B67D8002B5CD0102B5AD062E07B688E
:102BDC0018683B6899683B685A683B68DB6800F08A
:102BEC00E4FA7B681B689B68FB60FB6843F0770327
:102BFC00FB607B681B68FA689A604EE07B6818681B
:102C0C003B6899683B685A683B68DB6800F0CDFA12
:102C1C007B681B689A687B681B6842F480429A60E8
:102C2C003BE07B6818683B6859683B68DB681A4670
:102C3C0000F044FA7B681B685021184600F09BFAA0
:102C4C002BE07B6818683B6859683B68DB681A4660
:102C5C0000F062FA7B681B686021184600F08BFA62
:102C6C001BE07B6818683B6859683B68DB681A4650
:102C7C0000F024FA7B681B684021184600F07BFAB0
:102C8C000BE07B681A683B681B681946104600F01D
:102C9C0072FA02E000BF00E000BF7B68012283F8FB
:102CAC003D207B68002283F83C2000231846103717
:102CBC00BD4680BD80B483B000AF786000BF0C37D8
:102CCC00BD4680BC704780B483B000AF786000BF55
:102CDC000C37BD4680BC704780B483B000AF7860C1
:102CEC0000BF0C37BD4680BC704780B483B000AFCA
:102CFC00786000BF0C37BD4680BC704780B485B08F
:102D0C0000AF786039607B681B68FB607B68254A84
:102D1C00934207D07B68B3F1804F03D07B68224A83
:102D2C00934208D1FB6823F07003FB603B685B683F
:102D3C00FA681343FB607B681A4A934207D07B689E
:102D4C00B3F1804F03D07B68174A934208D1FB68DC
:102D5C0023F44073FB603B68DB68FA681343FB6049
:102D6C00FB6823F080023B685B691343FB607B6864
:102D7C00FA681A603B689A687B68DA623B681A6882
:102D8C007B689A627B68074A934203D13B681A6955
:102D9C007B681A637B6801225A6100BF1437BD46F9
:102DAC0080BC7047002C01400004004080B487B008
:102DBC0000AF786039607B681B6A23F001027B6886
:102DCC001A627B681B6A7B617B685B683B617B6812
:102DDC009B69FB60FB6823F07003FB60FB6823F0CE
:102DEC000303FB603B681B68FA681343FB607B6959
:102DFC0023F002037B613B689B687A6913437B6118
:102E0C007B681C4A93420CD17B6923F008037B61DD
:102E1C003B68DB687A6913437B617B6923F00403AD
:102E2C007B617B68134A934211D13B6923F4807315
:102E3C003B613B6923F400733B613B685B693A6916
:102E4C0013433B613B689B693A6913433B617B6865
:102E5C003A695A607B68FA689A613B685A687B6881
:102E6C005A637B687A691A6200BF1C37BD4680BC06
:102E7C00704700BF002C014080B487B000AF786071
:102E8C0039607B681B6A23F010027B681A627B68CE
:102E9C001B6A7B617B685B683B617B689B69FB6041
:102EAC00FB6823F4E043FB60FB6823F44073FB6096
:102EBC003B681B681B02FA681343FB607B6923F0B9
:102ECC0020037B613B689B681B017A6913437B6120
:102EDC007B681D4A93420DD17B6923F080037B6193
:102EEC003B68DB681B017A6913437B617B6923F0C8
:102EFC0040037B617B68144A934213D13B6923F4F2
:102F0C0080633B613B6923F400633B613B685B6915
:102F1C009B003A6913433B613B689B699B003A6990
:102F2C0013433B617B683A695A607B68FA689A6123
:102F3C003B685A687B689A637B687A691A6200BF3F
:102F4C001C37BD4680BC7047002C014080B487B054
:102F5C0000AF786039607B681B6A23F480727B68F1
:102F6C001A627B681B6A7B617B685B683B617B6870
:102F7C00DB69FB60FB6823F07003FB60FB6823F0EC
:102F8C000303FB603B681B68FA681343FB607B69B7
:102F9C0023F400737B613B689B681B027A691343C3
:102FAC007B617B681D4A93420DD17B6923F40063DE
:102FBC007B613B68DB681B027A6913437B617B692D
:102FCC0023F480637B617B68144A934213D13B6981
:102FDC0023F480533B613B6923F400533B613B6812
:102FEC005B691B013A6913433B613B689B691B019D
:102FFC003A6913433B617B683A695A607B68FA68AB
:10300C00DA613B685A687B68DA637B687A691A62B2
:10301C0000BF1C37BD4680BC704700BF002C014070
:10302C0080B487B000AF786039607B681B6A23F48A
:10303C0080527B681A627B681B6A3B617B685B68A9
:10304C007B617B68DB69FB60FB6823F4E043FB601E
:10305C00FB6823F44073FB603B681B681B02FA6837
:10306C001343FB603B6923F400533B613B689B6853
:10307C001B033A6913433B617B680F4A934209D1A6
:10308C007B6923F480437B613B685B699B017A69B4
:10309C0013437B617B687A695A607B68FA68DA61F2
:1030AC003B685A687B681A647B683A691A6200BF8D
:1030BC001C37BD4680BC7047002C014080B487B0E3
:1030CC0000AFF860B9607A60FB681B6A7B61FB68D3
:1030DC001B6A23F00102FB681A62FB689B693B6167
:1030EC003B6923F0F0033B617B681B013A69134396
:1030FC003B617B6923F00A037B617A69BB681343EC
:10310C007B61FB683A699A61FB687A691A6200BF55
:10311C001C37BD4680BC704780B487B000AFF860E8
:10312C00B9607A60FB681B6A23F01002FB681A62B4
:10313C00FB689B697B61FB681B6A3B617B6923F4C1
:10314C0070437B617B681B037A6913437B613B692A
:10315C0023F0A0033B61BB681B013A6913433B613D
:10316C00FB687A699A61FB683A691A6200BF1C377E
:10317C00BD4680BC704780B485B000AF78603960C4
:10318C007B689B68FB60FB6823F07003FB603A680C
:10319C00FB68134343F00703FB607B68FA689A6093
:1031AC0000BF1437BD4680BC704780B487B000AFF9
:1031BC00F860B9607A603B60FB689B687B617B69F7
:1031CC0023F47F437B613B681A027B681A43BB681C
:1031DC0013437A6913437B61FB687A699A6000BF79
:1031EC001C37BD4680BC704780B487B000AFF86018
:1031FC00B9607A60BB6803F01F03012202FA03F383
:10320C007B61FB681A6A7B69DB431A40FB681A62B4
:10321C00FB681A6ABB6803F01F03796801FA03F3B1
:10322C001A43FB681A6200BF1C37BD4680BC70474E
:10323C0080B485B000AF786039607B6893F83C301F
:10324C00012B01D1022341E07B68012283F83C2051
:10325C007B68022283F83D207B681B685B68FB60FF
:10326C007B681B689B68BB60FB6823F07003FB608A
:10327C003B681B68FA681343FB607B681B68FA6841
:10328C005A607B681B68144A934209D07B681B68A0
:10329C00B3F1804F04D07B681B68104A93420CD169
:1032AC00BB6823F08003BB603B685B68BA68134360
:1032BC00BB607B681B68BA689A607B68012283F8E4
:1032CC003D207B68002283F83C20002318461437ED
:1032DC00BD4680BC704700BF002C0140000400407C
:1032EC0080B483B000AF786000BF0C37BD4680BCA3
:1032FC00704780B483B000AF786000BF0C37BD4618
:10330C0080BC704770B500260C4D0D4C641BA4108E
:10331C00A64209D100F022F800260A4D0A4C641B83
:10332C00A410A64205D170BD55F8043B9847013650
:10333C00EEE755F8043B98470136F2E7A033000856
:10334C00A0330008A0330008A4330008034602444D
:10335C00934200D1704703F8011BF9E7F8B500BFA1
:10336C00F8BC08BC9E467047F8B500BFF8BC08BC5A
:04337C009E467047B2
:1033800002030405060708090A0B0C0D0E0F1010A6
:103390000000000000000000010203040607080905
:0433A00031010008EF
:0433A4000D0100080F
:1033A8000500000003000000020000000500000006
:1033B80003000000020000000A0000000024F400DE
:0833C8001000000001000000EC
:0400000508001639A0
:00000001FF
